{
  "abi": [
    {
      "inputs": [
        {
          "internalType": "int256",
          "name": "_count",
          "type": "int256"
        }
      ],
      "stateMutability": "nonpayable",
      "type": "constructor"
    },
    {
      "inputs": [],
      "name": "decrementCounter",
      "outputs": [],
      "stateMutability": "nonpayable",
      "type": "function"
    },
    {
      "inputs": [],
      "name": "getCount",
      "outputs": [
        {
          "internalType": "int256",
          "name": "",
          "type": "int256"
        }
      ],
      "stateMutability": "view",
      "type": "function"
    },
    {
      "inputs": [],
      "name": "incrementCounter",
      "outputs": [],
      "stateMutability": "nonpayable",
      "type": "function"
    }
  ],
  "bytecode": {
    "object": "0x608060405234801561001057600080fd5b5060405161017f38038061017f83398101604081905261002f91610037565b600055610050565b60006020828403121561004957600080fd5b5051919050565b6101208061005f6000396000f3fe6080604052348015600f57600080fd5b5060043610603c5760003560e01c80635b34b966146041578063a87d942c146049578063f5c5ad8314605e575b600080fd5b60476064565b005b60005460405190815260200160405180910390f35b6047607b565b60016000808282546074919060a1565b9091555050565b60016000808282546074919060c6565b634e487b7160e01b600052601160045260246000fd5b808201828112600083128015821682158216171560be5760be608b565b505092915050565b818103600083128015838313168383128216171560e35760e3608b565b509291505056fea26469706673582212203b1f4378e0f6dd47b2d5a7883d94cc1cd9593b8b7d14158ce56efcff2521caa864736f6c63430008110033",
    "linkReferences": {}
  },
  "methodIdentifiers": {
    "decrementCounter()": "f5c5ad83",
    "getCount()": "a87d942c",
    "incrementCounter()": "5b34b966"
  },
  "id": 7
}